{
  "_format": "hh-sol-artifact-1",
  "contractName": "ChainBattles",
  "sourceName": "contracts/ChainBattles.sol",
  "abi": [
    {
      "inputs": [],
      "stateMutability": "nonpayable",
      "type": "constructor"
    },
    {
      "anonymous": false,
      "inputs": [
        {
          "indexed": true,
          "internalType": "address",
          "name": "owner",
          "type": "address"
        },
        {
          "indexed": true,
          "internalType": "address",
          "name": "approved",
          "type": "address"
        },
        {
          "indexed": true,
          "internalType": "uint256",
          "name": "tokenId",
          "type": "uint256"
        }
      ],
      "name": "Approval",
      "type": "event"
    },
    {
      "anonymous": false,
      "inputs": [
        {
          "indexed": true,
          "internalType": "address",
          "name": "owner",
          "type": "address"
        },
        {
          "indexed": true,
          "internalType": "address",
          "name": "operator",
          "type": "address"
        },
        {
          "indexed": false,
          "internalType": "bool",
          "name": "approved",
          "type": "bool"
        }
      ],
      "name": "ApprovalForAll",
      "type": "event"
    },
    {
      "anonymous": false,
      "inputs": [
        {
          "indexed": true,
          "internalType": "address",
          "name": "from",
          "type": "address"
        },
        {
          "indexed": true,
          "internalType": "address",
          "name": "to",
          "type": "address"
        },
        {
          "indexed": true,
          "internalType": "uint256",
          "name": "tokenId",
          "type": "uint256"
        }
      ],
      "name": "Transfer",
      "type": "event"
    },
    {
      "inputs": [
        {
          "internalType": "address",
          "name": "to",
          "type": "address"
        },
        {
          "internalType": "uint256",
          "name": "tokenId",
          "type": "uint256"
        }
      ],
      "name": "approve",
      "outputs": [],
      "stateMutability": "nonpayable",
      "type": "function"
    },
    {
      "inputs": [
        {
          "internalType": "address",
          "name": "owner",
          "type": "address"
        }
      ],
      "name": "balanceOf",
      "outputs": [
        {
          "internalType": "uint256",
          "name": "",
          "type": "uint256"
        }
      ],
      "stateMutability": "view",
      "type": "function"
    },
    {
      "inputs": [
        {
          "internalType": "uint256",
          "name": "tokenId",
          "type": "uint256"
        }
      ],
      "name": "generateCharacter",
      "outputs": [
        {
          "internalType": "string",
          "name": "",
          "type": "string"
        }
      ],
      "stateMutability": "nonpayable",
      "type": "function"
    },
    {
      "inputs": [
        {
          "internalType": "uint256",
          "name": "tokenId",
          "type": "uint256"
        }
      ],
      "name": "getApproved",
      "outputs": [
        {
          "internalType": "address",
          "name": "",
          "type": "address"
        }
      ],
      "stateMutability": "view",
      "type": "function"
    },
    {
      "inputs": [
        {
          "internalType": "uint256",
          "name": "tokenId",
          "type": "uint256"
        }
      ],
      "name": "getLevels",
      "outputs": [
        {
          "internalType": "string",
          "name": "",
          "type": "string"
        }
      ],
      "stateMutability": "view",
      "type": "function"
    },
    {
      "inputs": [
        {
          "internalType": "uint256",
          "name": "tokenId",
          "type": "uint256"
        }
      ],
      "name": "getTokenURI",
      "outputs": [
        {
          "internalType": "string",
          "name": "",
          "type": "string"
        }
      ],
      "stateMutability": "nonpayable",
      "type": "function"
    },
    {
      "inputs": [
        {
          "internalType": "address",
          "name": "owner",
          "type": "address"
        },
        {
          "internalType": "address",
          "name": "operator",
          "type": "address"
        }
      ],
      "name": "isApprovedForAll",
      "outputs": [
        {
          "internalType": "bool",
          "name": "",
          "type": "bool"
        }
      ],
      "stateMutability": "view",
      "type": "function"
    },
    {
      "inputs": [],
      "name": "mint",
      "outputs": [],
      "stateMutability": "nonpayable",
      "type": "function"
    },
    {
      "inputs": [],
      "name": "name",
      "outputs": [
        {
          "internalType": "string",
          "name": "",
          "type": "string"
        }
      ],
      "stateMutability": "view",
      "type": "function"
    },
    {
      "inputs": [
        {
          "internalType": "uint256",
          "name": "tokenId",
          "type": "uint256"
        }
      ],
      "name": "ownerOf",
      "outputs": [
        {
          "internalType": "address",
          "name": "",
          "type": "address"
        }
      ],
      "stateMutability": "view",
      "type": "function"
    },
    {
      "inputs": [
        {
          "internalType": "address",
          "name": "from",
          "type": "address"
        },
        {
          "internalType": "address",
          "name": "to",
          "type": "address"
        },
        {
          "internalType": "uint256",
          "name": "tokenId",
          "type": "uint256"
        }
      ],
      "name": "safeTransferFrom",
      "outputs": [],
      "stateMutability": "nonpayable",
      "type": "function"
    },
    {
      "inputs": [
        {
          "internalType": "address",
          "name": "from",
          "type": "address"
        },
        {
          "internalType": "address",
          "name": "to",
          "type": "address"
        },
        {
          "internalType": "uint256",
          "name": "tokenId",
          "type": "uint256"
        },
        {
          "internalType": "bytes",
          "name": "data",
          "type": "bytes"
        }
      ],
      "name": "safeTransferFrom",
      "outputs": [],
      "stateMutability": "nonpayable",
      "type": "function"
    },
    {
      "inputs": [
        {
          "internalType": "address",
          "name": "operator",
          "type": "address"
        },
        {
          "internalType": "bool",
          "name": "approved",
          "type": "bool"
        }
      ],
      "name": "setApprovalForAll",
      "outputs": [],
      "stateMutability": "nonpayable",
      "type": "function"
    },
    {
      "inputs": [
        {
          "internalType": "bytes4",
          "name": "interfaceId",
          "type": "bytes4"
        }
      ],
      "name": "supportsInterface",
      "outputs": [
        {
          "internalType": "bool",
          "name": "",
          "type": "bool"
        }
      ],
      "stateMutability": "view",
      "type": "function"
    },
    {
      "inputs": [],
      "name": "symbol",
      "outputs": [
        {
          "internalType": "string",
          "name": "",
          "type": "string"
        }
      ],
      "stateMutability": "view",
      "type": "function"
    },
    {
      "inputs": [
        {
          "internalType": "uint256",
          "name": "",
          "type": "uint256"
        }
      ],
      "name": "tokenIdToLevels",
      "outputs": [
        {
          "internalType": "uint256",
          "name": "",
          "type": "uint256"
        }
      ],
      "stateMutability": "view",
      "type": "function"
    },
    {
      "inputs": [
        {
          "internalType": "uint256",
          "name": "tokenId",
          "type": "uint256"
        }
      ],
      "name": "tokenURI",
      "outputs": [
        {
          "internalType": "string",
          "name": "",
          "type": "string"
        }
      ],
      "stateMutability": "view",
      "type": "function"
    },
    {
      "inputs": [
        {
          "internalType": "uint256",
          "name": "tokenId",
          "type": "uint256"
        }
      ],
      "name": "train",
      "outputs": [],
      "stateMutability": "nonpayable",
      "type": "function"
    },
    {
      "inputs": [
        {
          "internalType": "address",
          "name": "from",
          "type": "address"
        },
        {
          "internalType": "address",
          "name": "to",
          "type": "address"
        },
        {
          "internalType": "uint256",
          "name": "tokenId",
          "type": "uint256"
        }
      ],
      "name": "transferFrom",
      "outputs": [],
      "stateMutability": "nonpayable",
      "type": "function"
    }
  ],
  "bytecode": "0x60806040523480156200001157600080fd5b506040518060400160405280600d81526020017f436861696e20426174746c6573000000000000000000000000000000000000008152506040518060400160405280600581526020017f4342544c53000000000000000000000000000000000000000000000000000000815250816000908051906020019062000096929190620000b8565b508060019080519060200190620000af929190620000b8565b505050620001cd565b828054620000c69062000197565b90600052602060002090601f016020900481019282620000ea576000855562000136565b82601f106200010557805160ff191683800117855562000136565b8280016001018555821562000136579182015b828111156200013557825182559160200191906001019062000118565b5b50905062000145919062000149565b5090565b5b80821115620001645760008160009055506001016200014a565b5090565b7f4e487b7100000000000000000000000000000000000000000000000000000000600052602260045260246000fd5b60006002820490506001821680620001b057607f821691505b60208210811415620001c757620001c662000168565b5b50919050565b6135c180620001dd6000396000f3fe608060405234801561001057600080fd5b50600436106101215760003560e01c806342842e0e116100ad578063b88d4fde11610071578063b88d4fde14610318578063c6a4342f14610334578063c87b56dd14610364578063e985e9c514610394578063f43785f9146103c457610121565b806342842e0e146102625780636352211e1461027e57806370a08231146102ae57806395d89b41146102de578063a22cb465146102fc57610121565b80630daefed5116100f45780630daefed5146101c05780631249c58b146101f057806323b872dd146101fa578063368004ed146102165780633bb3a24d1461023257610121565b806301ffc9a71461012657806306fdde0314610156578063081812fc14610174578063095ea7b3146101a4575b600080fd5b610140600480360381019061013b9190611d2e565b6103f4565b60405161014d9190611d76565b60405180910390f35b61015e6104d6565b60405161016b9190611e2a565b60405180910390f35b61018e60048036038101906101899190611e82565b610568565b60405161019b9190611ef0565b60405180910390f35b6101be60048036038101906101b99190611f37565b6105ae565b005b6101da60048036038101906101d59190611e82565b6106c6565b6040516101e79190611e2a565b60405180910390f35b6101f8610724565b005b610214600480360381019061020f9190611f77565b610774565b005b610230600480360381019061022b9190611e82565b6107d4565b005b61024c60048036038101906102479190611e82565b6108ae565b6040516102599190611e2a565b60405180910390f35b61027c60048036038101906102779190611f77565b610916565b005b61029860048036038101906102939190611e82565b610936565b6040516102a59190611ef0565b60405180910390f35b6102c860048036038101906102c39190611fca565b6109e8565b6040516102d59190612006565b60405180910390f35b6102e6610aa0565b6040516102f39190611e2a565b60405180910390f35b6103166004803603810190610311919061204d565b610b32565b005b610332600480360381019061032d91906121c2565b610b48565b005b61034e60048036038101906103499190611e82565b610baa565b60405161035b9190612006565b60405180910390f35b61037e60048036038101906103799190611e82565b610bc2565b60405161038b9190611e2a565b60405180910390f35b6103ae60048036038101906103a99190612245565b610cd5565b6040516103bb9190611d76565b60405180910390f35b6103de60048036038101906103d99190611e82565b610d69565b6040516103eb9190611e2a565b60405180910390f35b60007f80ac58cd000000000000000000000000000000000000000000000000000000007bffffffffffffffffffffffffffffffffffffffffffffffffffffffff1916827bffffffffffffffffffffffffffffffffffffffffffffffffffffffff191614806104bf57507f5b5e139f000000000000000000000000000000000000000000000000000000007bffffffffffffffffffffffffffffffffffffffffffffffffffffffff1916827bffffffffffffffffffffffffffffffffffffffffffffffffffffffff1916145b806104cf57506104ce82610d94565b5b9050919050565b6060600080546104e5906122b4565b80601f0160208091040260200160405190810160405280929190818152602001828054610511906122b4565b801561055e5780601f106105335761010080835404028352916020019161055e565b820191906000526020600020905b81548152906001019060200180831161054157829003601f168201915b5050505050905090565b600061057382610dfe565b6004600083815260200190815260200160002060009054906101000a900473ffffffffffffffffffffffffffffffffffffffff169050919050565b60006105b982610936565b90508073ffffffffffffffffffffffffffffffffffffffff168373ffffffffffffffffffffffffffffffffffffffff16141561062a576040517f08c379a000000000000000000000000000000000000000000000000000000000815260040161062190612358565b60405180910390fd5b8073ffffffffffffffffffffffffffffffffffffffff16610649610e49565b73ffffffffffffffffffffffffffffffffffffffff161480610678575061067781610672610e49565b610cd5565b5b6106b7576040517f08c379a00000000000000000000000000000000000000000000000000000000081526004016106ae906123ea565b60405180910390fd5b6106c18383610e51565b505050565b606060006106d383610d69565b6040516020016106e3919061286e565b60405160208183030381529060405290506106fd81610f0a565b60405160200161070d919061293f565b604051602081830303815290604052915050919050565b61072e600761106e565b600061073a6007611084565b90506107463382611092565b600060086000838152602001908152602001600020819055506107718161076c836108ae565b6110b0565b50565b61078561077f610e49565b82611124565b6107c4576040517f08c379a00000000000000000000000000000000000000000000000000000000081526004016107bb906129d3565b60405180910390fd5b6107cf8383836111b9565b505050565b6107dd81611420565b6107e657600080fd5b3373ffffffffffffffffffffffffffffffffffffffff1661080682610936565b73ffffffffffffffffffffffffffffffffffffffff161461085c576040517f08c379a000000000000000000000000000000000000000000000000000000000815260040161085390612a65565b60405180910390fd5b6000600860008381526020019081526020016000205490506001816108819190612ab4565b60086000848152602001908152602001600020819055506108aa826108a5846108ae565b6110b0565b5050565b606060006108bb8361148c565b6108c4846106c6565b6040516020016108d5929190612d44565b60405160208183030381529060405290506108ef81610f0a565b6040516020016108ff9190612e01565b604051602081830303815290604052915050919050565b61093183838360405180602001604052806000815250610b48565b505050565b6000806002600084815260200190815260200160002060009054906101000a900473ffffffffffffffffffffffffffffffffffffffff169050600073ffffffffffffffffffffffffffffffffffffffff168173ffffffffffffffffffffffffffffffffffffffff1614156109df576040517f08c379a00000000000000000000000000000000000000000000000000000000081526004016109d690612e6f565b60405180910390fd5b80915050919050565b60008073ffffffffffffffffffffffffffffffffffffffff168273ffffffffffffffffffffffffffffffffffffffff161415610a59576040517f08c379a0000000000000000000000000000000000000000000000000000000008152600401610a5090612f01565b60405180910390fd5b600360008373ffffffffffffffffffffffffffffffffffffffff1673ffffffffffffffffffffffffffffffffffffffff168152602001908152602001600020549050919050565b606060018054610aaf906122b4565b80601f0160208091040260200160405190810160405280929190818152602001828054610adb906122b4565b8015610b285780601f10610afd57610100808354040283529160200191610b28565b820191906000526020600020905b815481529060010190602001808311610b0b57829003601f168201915b5050505050905090565b610b44610b3d610e49565b83836115ed565b5050565b610b59610b53610e49565b83611124565b610b98576040517f08c379a0000000000000000000000000000000000000000000000000000000008152600401610b8f906129d3565b60405180910390fd5b610ba48484848461175a565b50505050565b60086020528060005260406000206000915090505481565b6060610bcd82610dfe565b6000600660008481526020019081526020016000208054610bed906122b4565b80601f0160208091040260200160405190810160405280929190818152602001828054610c19906122b4565b8015610c665780601f10610c3b57610100808354040283529160200191610c66565b820191906000526020600020905b815481529060010190602001808311610c4957829003601f168201915b505050505090506000610c776117b6565b9050600081511415610c8d578192505050610cd0565b600082511115610cc2578082604051602001610caa929190612f21565b60405160208183030381529060405292505050610cd0565b610ccb846117cd565b925050505b919050565b6000600560008473ffffffffffffffffffffffffffffffffffffffff1673ffffffffffffffffffffffffffffffffffffffff16815260200190815260200160002060008373ffffffffffffffffffffffffffffffffffffffff1673ffffffffffffffffffffffffffffffffffffffff16815260200190815260200160002060009054906101000a900460ff16905092915050565b6060600060086000848152602001908152602001600020549050610d8c8161148c565b915050919050565b60007f01ffc9a7000000000000000000000000000000000000000000000000000000007bffffffffffffffffffffffffffffffffffffffffffffffffffffffff1916827bffffffffffffffffffffffffffffffffffffffffffffffffffffffff1916149050919050565b610e0781611420565b610e46576040517f08c379a0000000000000000000000000000000000000000000000000000000008152600401610e3d90612e6f565b60405180910390fd5b50565b600033905090565b816004600083815260200190815260200160002060006101000a81548173ffffffffffffffffffffffffffffffffffffffff021916908373ffffffffffffffffffffffffffffffffffffffff160217905550808273ffffffffffffffffffffffffffffffffffffffff16610ec483610936565b73ffffffffffffffffffffffffffffffffffffffff167f8c5be1e5ebec7d5bd14f71427d1e84f3dd0314c0f7b2291e5b200ac8c7c3b92560405160405180910390a45050565b6060600082511415610f2d57604051806020016040528060008152509050611069565b600060405180606001604052806040815260200161354c6040913990506000600360028551610f5c9190612ab4565b610f669190612f74565b6004610f729190612fa5565b67ffffffffffffffff811115610f8b57610f8a612097565b5b6040519080825280601f01601f191660200182016040528015610fbd5781602001600182028036833780820191505090505b509050600182016020820185865187015b80821015611029576003820191508151603f8160121c168501518453600184019350603f81600c1c168501518453600184019350603f8160061c168501518453600184019350603f8116850151845360018401935050610fce565b5050600386510660018114611045576002811461105857611060565b603d6001830353603d6002830353611060565b603d60018303535b50505080925050505b919050565b6001816000016000828254019250508190555050565b600081600001549050919050565b6110ac828260405180602001604052806000815250611835565b5050565b6110b982611420565b6110f8576040517f08c379a00000000000000000000000000000000000000000000000000000000081526004016110ef90613071565b60405180910390fd5b8060066000848152602001908152602001600020908051906020019061111f929190611c1f565b505050565b60008061113083610936565b90508073ffffffffffffffffffffffffffffffffffffffff168473ffffffffffffffffffffffffffffffffffffffff16148061117257506111718185610cd5565b5b806111b057508373ffffffffffffffffffffffffffffffffffffffff1661119884610568565b73ffffffffffffffffffffffffffffffffffffffff16145b91505092915050565b8273ffffffffffffffffffffffffffffffffffffffff166111d982610936565b73ffffffffffffffffffffffffffffffffffffffff161461122f576040517f08c379a000000000000000000000000000000000000000000000000000000000815260040161122690613103565b60405180910390fd5b600073ffffffffffffffffffffffffffffffffffffffff168273ffffffffffffffffffffffffffffffffffffffff16141561129f576040517f08c379a000000000000000000000000000000000000000000000000000000000815260040161129690613195565b60405180910390fd5b6112aa838383611890565b6112b5600082610e51565b6001600360008573ffffffffffffffffffffffffffffffffffffffff1673ffffffffffffffffffffffffffffffffffffffff168152602001908152602001600020600082825461130591906131b5565b925050819055506001600360008473ffffffffffffffffffffffffffffffffffffffff1673ffffffffffffffffffffffffffffffffffffffff168152602001908152602001600020600082825461135c9190612ab4565b92505081905550816002600083815260200190815260200160002060006101000a81548173ffffffffffffffffffffffffffffffffffffffff021916908373ffffffffffffffffffffffffffffffffffffffff160217905550808273ffffffffffffffffffffffffffffffffffffffff168473ffffffffffffffffffffffffffffffffffffffff167fddf252ad1be2c89b69c2b068fc378daa952ba7f163c4a11628f55a4df523b3ef60405160405180910390a461141b838383611895565b505050565b60008073ffffffffffffffffffffffffffffffffffffffff166002600084815260200190815260200160002060009054906101000a900473ffffffffffffffffffffffffffffffffffffffff1673ffffffffffffffffffffffffffffffffffffffff1614159050919050565b606060008214156114d4576040518060400160405280600181526020017f300000000000000000000000000000000000000000000000000000000000000081525090506115e8565b600082905060005b600082146115065780806114ef906131e9565b915050600a826114ff9190612f74565b91506114dc565b60008167ffffffffffffffff81111561152257611521612097565b5b6040519080825280601f01601f1916602001820160405280156115545781602001600182028036833780820191505090505b5090505b600085146115e15760018261156d91906131b5565b9150600a8561157c9190613232565b60306115889190612ab4565b60f81b81838151811061159e5761159d613263565b5b60200101907effffffffffffffffffffffffffffffffffffffffffffffffffffffffffffff1916908160001a905350600a856115da9190612f74565b9450611558565b8093505050505b919050565b8173ffffffffffffffffffffffffffffffffffffffff168373ffffffffffffffffffffffffffffffffffffffff16141561165c576040517f08c379a0000000000000000000000000000000000000000000000000000000008152600401611653906132de565b60405180910390fd5b80600560008573ffffffffffffffffffffffffffffffffffffffff1673ffffffffffffffffffffffffffffffffffffffff16815260200190815260200160002060008473ffffffffffffffffffffffffffffffffffffffff1673ffffffffffffffffffffffffffffffffffffffff16815260200190815260200160002060006101000a81548160ff0219169083151502179055508173ffffffffffffffffffffffffffffffffffffffff168373ffffffffffffffffffffffffffffffffffffffff167f17307eab39ab6107e8899845ad3d59bd9653f200f220920489ca2b5937696c318360405161174d9190611d76565b60405180910390a3505050565b6117658484846111b9565b6117718484848461189a565b6117b0576040517f08c379a00000000000000000000000000000000000000000000000000000000081526004016117a790613370565b60405180910390fd5b50505050565b606060405180602001604052806000815250905090565b60606117d882610dfe565b60006117e26117b6565b90506000815111611802576040518060200160405280600081525061182d565b8061180c8461148c565b60405160200161181d929190612f21565b6040516020818303038152906040525b915050919050565b61183f8383611a22565b61184c600084848461189a565b61188b576040517f08c379a000000000000000000000000000000000000000000000000000000000815260040161188290613370565b60405180910390fd5b505050565b505050565b505050565b60006118bb8473ffffffffffffffffffffffffffffffffffffffff16611bfc565b15611a15578373ffffffffffffffffffffffffffffffffffffffff1663150b7a026118e4610e49565b8786866040518563ffffffff1660e01b815260040161190694939291906133e5565b6020604051808303816000875af192505050801561194257506040513d601f19601f8201168201806040525081019061193f9190613446565b60015b6119c5573d8060008114611972576040519150601f19603f3d011682016040523d82523d6000602084013e611977565b606091505b506000815114156119bd576040517f08c379a00000000000000000000000000000000000000000000000000000000081526004016119b490613370565b60405180910390fd5b805181602001fd5b63150b7a0260e01b7bffffffffffffffffffffffffffffffffffffffffffffffffffffffff1916817bffffffffffffffffffffffffffffffffffffffffffffffffffffffff191614915050611a1a565b600190505b949350505050565b600073ffffffffffffffffffffffffffffffffffffffff168273ffffffffffffffffffffffffffffffffffffffff161415611a92576040517f08c379a0000000000000000000000000000000000000000000000000000000008152600401611a89906134bf565b60405180910390fd5b611a9b81611420565b15611adb576040517f08c379a0000000000000000000000000000000000000000000000000000000008152600401611ad29061352b565b60405180910390fd5b611ae760008383611890565b6001600360008473ffffffffffffffffffffffffffffffffffffffff1673ffffffffffffffffffffffffffffffffffffffff1681526020019081526020016000206000828254611b379190612ab4565b92505081905550816002600083815260200190815260200160002060006101000a81548173ffffffffffffffffffffffffffffffffffffffff021916908373ffffffffffffffffffffffffffffffffffffffff160217905550808273ffffffffffffffffffffffffffffffffffffffff16600073ffffffffffffffffffffffffffffffffffffffff167fddf252ad1be2c89b69c2b068fc378daa952ba7f163c4a11628f55a4df523b3ef60405160405180910390a4611bf860008383611895565b5050565b6000808273ffffffffffffffffffffffffffffffffffffffff163b119050919050565b828054611c2b906122b4565b90600052602060002090601f016020900481019282611c4d5760008555611c94565b82601f10611c6657805160ff1916838001178555611c94565b82800160010185558215611c94579182015b82811115611c93578251825591602001919060010190611c78565b5b509050611ca19190611ca5565b5090565b5b80821115611cbe576000816000905550600101611ca6565b5090565b6000604051905090565b600080fd5b600080fd5b60007fffffffff0000000000000000000000000000000000000000000000000000000082169050919050565b611d0b81611cd6565b8114611d1657600080fd5b50565b600081359050611d2881611d02565b92915050565b600060208284031215611d4457611d43611ccc565b5b6000611d5284828501611d19565b91505092915050565b60008115159050919050565b611d7081611d5b565b82525050565b6000602082019050611d8b6000830184611d67565b92915050565b600081519050919050565b600082825260208201905092915050565b60005b83811015611dcb578082015181840152602081019050611db0565b83811115611dda576000848401525b50505050565b6000601f19601f8301169050919050565b6000611dfc82611d91565b611e068185611d9c565b9350611e16818560208601611dad565b611e1f81611de0565b840191505092915050565b60006020820190508181036000830152611e448184611df1565b905092915050565b6000819050919050565b611e5f81611e4c565b8114611e6a57600080fd5b50565b600081359050611e7c81611e56565b92915050565b600060208284031215611e9857611e97611ccc565b5b6000611ea684828501611e6d565b91505092915050565b600073ffffffffffffffffffffffffffffffffffffffff82169050919050565b6000611eda82611eaf565b9050919050565b611eea81611ecf565b82525050565b6000602082019050611f056000830184611ee1565b92915050565b611f1481611ecf565b8114611f1f57600080fd5b50565b600081359050611f3181611f0b565b92915050565b60008060408385031215611f4e57611f4d611ccc565b5b6000611f5c85828601611f22565b9250506020611f6d85828601611e6d565b9150509250929050565b600080600060608486031215611f9057611f8f611ccc565b5b6000611f9e86828701611f22565b9350506020611faf86828701611f22565b9250506040611fc086828701611e6d565b9150509250925092565b600060208284031215611fe057611fdf611ccc565b5b6000611fee84828501611f22565b91505092915050565b61200081611e4c565b82525050565b600060208201905061201b6000830184611ff7565b92915050565b61202a81611d5b565b811461203557600080fd5b50565b60008135905061204781612021565b92915050565b6000806040838503121561206457612063611ccc565b5b600061207285828601611f22565b925050602061208385828601612038565b9150509250929050565b600080fd5b600080fd5b7f4e487b7100000000000000000000000000000000000000000000000000000000600052604160045260246000fd5b6120cf82611de0565b810181811067ffffffffffffffff821117156120ee576120ed612097565b5b80604052505050565b6000612101611cc2565b905061210d82826120c6565b919050565b600067ffffffffffffffff82111561212d5761212c612097565b5b61213682611de0565b9050602081019050919050565b82818337600083830152505050565b600061216561216084612112565b6120f7565b90508281526020810184848401111561218157612180612092565b5b61218c848285612143565b509392505050565b600082601f8301126121a9576121a861208d565b5b81356121b9848260208601612152565b91505092915050565b600080600080608085870312156121dc576121db611ccc565b5b60006121ea87828801611f22565b94505060206121fb87828801611f22565b935050604061220c87828801611e6d565b925050606085013567ffffffffffffffff81111561222d5761222c611cd1565b5b61223987828801612194565b91505092959194509250565b6000806040838503121561225c5761225b611ccc565b5b600061226a85828601611f22565b925050602061227b85828601611f22565b9150509250929050565b7f4e487b7100000000000000000000000000000000000000000000000000000000600052602260045260246000fd5b600060028204905060018216806122cc57607f821691505b602082108114156122e0576122df612285565b5b50919050565b7f4552433732313a20617070726f76616c20746f2063757272656e74206f776e6560008201527f7200000000000000000000000000000000000000000000000000000000000000602082015250565b6000612342602183611d9c565b915061234d826122e6565b604082019050919050565b6000602082019050818103600083015261237181612335565b9050919050565b7f4552433732313a20617070726f76652063616c6c6572206973206e6f7420746f60008201527f6b656e206f776e6572206e6f7220617070726f76656420666f7220616c6c0000602082015250565b60006123d4603e83611d9c565b91506123df82612378565b604082019050919050565b60006020820190508181036000830152612403816123c7565b9050919050565b600081905092915050565b7f3c73766720786d6c6e733d22687474703a2f2f7777772e77332e6f72672f323060008201527f30302f73766722207072657365727665417370656374526174696f3d22784d6960208201527f6e594d696e206d656574222076696577426f783d22302030203335302033353060408201527f223e000000000000000000000000000000000000000000000000000000000000606082015250565b60006124bd60628361240a565b91506124c882612415565b606282019050919050565b7f3c7374796c653e2e62617365207b2066696c6c3a2077686974653b20666f6e7460008201527f2d66616d696c793a2073657269663b20666f6e742d73697a653a20313470783b60208201527f207d3c2f7374796c653e00000000000000000000000000000000000000000000604082015250565b6000612555604a8361240a565b9150612560826124d3565b604a82019050919050565b7f3c726563742077696474683d223130302522206865696768743d22313030252260008201527f2066696c6c3d22626c61636b22202f3e00000000000000000000000000000000602082015250565b60006125c760308361240a565b91506125d28261256b565b603082019050919050565b7f3c7465787420783d223530252220793d223430252220636c6173733d2262617360008201527f652220646f6d696e616e742d626173656c696e653d226d6964646c652220746560208201527f78742d616e63686f723d226d6964646c65223e00000000000000000000000000604082015250565b600061265f60538361240a565b915061266a826125dd565b605382019050919050565b7f57617272696f7200000000000000000000000000000000000000000000000000600082015250565b60006126ab60078361240a565b91506126b682612675565b600782019050919050565b7f3c2f746578743e00000000000000000000000000000000000000000000000000600082015250565b60006126f760078361240a565b9150612702826126c1565b600782019050919050565b7f3c7465787420783d223530252220793d223530252220636c6173733d2262617360008201527f652220646f6d696e616e742d626173656c696e653d226d6964646c652220746560208201527f78742d616e63686f723d226d6964646c65223e00000000000000000000000000604082015250565b600061278f60538361240a565b915061279a8261270d565b605382019050919050565b7f4c6576656c733a20000000000000000000000000000000000000000000000000600082015250565b60006127db60088361240a565b91506127e6826127a5565b600882019050919050565b60006127fc82611d91565b612806818561240a565b9350612816818560208601611dad565b80840191505092915050565b7f3c2f7376673e0000000000000000000000000000000000000000000000000000600082015250565b600061285860068361240a565b915061286382612822565b600682019050919050565b6000612879826124b0565b915061288482612548565b915061288f826125ba565b915061289a82612652565b91506128a58261269e565b91506128b0826126ea565b91506128bb82612782565b91506128c6826127ce565b91506128d282846127f1565b91506128dd826126ea565b91506128e88261284b565b915081905092915050565b7f646174613a696d6167652f7376672b786d6c3b6261736536342c000000000000600082015250565b6000612929601a8361240a565b9150612934826128f3565b601a82019050919050565b600061294a8261291c565b915061295682846127f1565b915081905092915050565b7f4552433732313a2063616c6c6572206973206e6f7420746f6b656e206f776e6560008201527f72206e6f7220617070726f766564000000000000000000000000000000000000602082015250565b60006129bd602e83611d9c565b91506129c882612961565b604082019050919050565b600060208201905081810360008301526129ec816129b0565b9050919050565b7f596f75206d757374206f776e207468697320746f6b656e20746f20747261696e60008201527f2069740000000000000000000000000000000000000000000000000000000000602082015250565b6000612a4f602383611d9c565b9150612a5a826129f3565b604082019050919050565b60006020820190508181036000830152612a7e81612a42565b9050919050565b7f4e487b7100000000000000000000000000000000000000000000000000000000600052601160045260246000fd5b6000612abf82611e4c565b9150612aca83611e4c565b9250827fffffffffffffffffffffffffffffffffffffffffffffffffffffffffffffffff03821115612aff57612afe612a85565b5b828201905092915050565b7f7b00000000000000000000000000000000000000000000000000000000000000600082015250565b6000612b4060018361240a565b9150612b4b82612b0a565b600182019050919050565b7f226e616d65223a2022436861696e20426174746c657320230000000000000000600082015250565b6000612b8c60188361240a565b9150612b9782612b56565b601882019050919050565b7f222c000000000000000000000000000000000000000000000000000000000000600082015250565b6000612bd860028361240a565b9150612be382612ba2565b600282019050919050565b7f226465736372697074696f6e223a2022426174746c6573206f6e20636861696e60008201527f222c000000000000000000000000000000000000000000000000000000000000602082015250565b6000612c4a60228361240a565b9150612c5582612bee565b602282019050919050565b7f22696d616765223a202200000000000000000000000000000000000000000000600082015250565b6000612c96600a8361240a565b9150612ca182612c60565b600a82019050919050565b7f2200000000000000000000000000000000000000000000000000000000000000600082015250565b6000612ce260018361240a565b9150612ced82612cac565b600182019050919050565b7f7d00000000000000000000000000000000000000000000000000000000000000600082015250565b6000612d2e60018361240a565b9150612d3982612cf8565b600182019050919050565b6000612d4f82612b33565b9150612d5a82612b7f565b9150612d6682856127f1565b9150612d7182612bcb565b9150612d7c82612c3d565b9150612d8782612c89565b9150612d9382846127f1565b9150612d9e82612cd5565b9150612da982612d21565b91508190509392505050565b7f646174613a6170706c69636174696f6e2f6a736f6e3b6261736536342c000000600082015250565b6000612deb601d8361240a565b9150612df682612db5565b601d82019050919050565b6000612e0c82612dde565b9150612e1882846127f1565b915081905092915050565b7f4552433732313a20696e76616c696420746f6b656e2049440000000000000000600082015250565b6000612e59601883611d9c565b9150612e6482612e23565b602082019050919050565b60006020820190508181036000830152612e8881612e4c565b9050919050565b7f4552433732313a2061646472657373207a65726f206973206e6f74206120766160008201527f6c6964206f776e65720000000000000000000000000000000000000000000000602082015250565b6000612eeb602983611d9c565b9150612ef682612e8f565b604082019050919050565b60006020820190508181036000830152612f1a81612ede565b9050919050565b6000612f2d82856127f1565b9150612f3982846127f1565b91508190509392505050565b7f4e487b7100000000000000000000000000000000000000000000000000000000600052601260045260246000fd5b6000612f7f82611e4c565b9150612f8a83611e4c565b925082612f9a57612f99612f45565b5b828204905092915050565b6000612fb082611e4c565b9150612fbb83611e4c565b9250817fffffffffffffffffffffffffffffffffffffffffffffffffffffffffffffffff0483118215151615612ff457612ff3612a85565b5b828202905092915050565b7f45524337323155524953746f726167653a2055524920736574206f66206e6f6e60008201527f6578697374656e7420746f6b656e000000000000000000000000000000000000602082015250565b600061305b602e83611d9c565b915061306682612fff565b604082019050919050565b6000602082019050818103600083015261308a8161304e565b9050919050565b7f4552433732313a207472616e736665722066726f6d20696e636f72726563742060008201527f6f776e6572000000000000000000000000000000000000000000000000000000602082015250565b60006130ed602583611d9c565b91506130f882613091565b604082019050919050565b6000602082019050818103600083015261311c816130e0565b9050919050565b7f4552433732313a207472616e7366657220746f20746865207a65726f2061646460008201527f7265737300000000000000000000000000000000000000000000000000000000602082015250565b600061317f602483611d9c565b915061318a82613123565b604082019050919050565b600060208201905081810360008301526131ae81613172565b9050919050565b60006131c082611e4c565b91506131cb83611e4c565b9250828210156131de576131dd612a85565b5b828203905092915050565b60006131f482611e4c565b91507fffffffffffffffffffffffffffffffffffffffffffffffffffffffffffffffff82141561322757613226612a85565b5b600182019050919050565b600061323d82611e4c565b915061324883611e4c565b92508261325857613257612f45565b5b828206905092915050565b7f4e487b7100000000000000000000000000000000000000000000000000000000600052603260045260246000fd5b7f4552433732313a20617070726f766520746f2063616c6c657200000000000000600082015250565b60006132c8601983611d9c565b91506132d382613292565b602082019050919050565b600060208201905081810360008301526132f7816132bb565b9050919050565b7f4552433732313a207472616e7366657220746f206e6f6e20455243373231526560008201527f63656976657220696d706c656d656e7465720000000000000000000000000000602082015250565b600061335a603283611d9c565b9150613365826132fe565b604082019050919050565b600060208201905081810360008301526133898161334d565b9050919050565b600081519050919050565b600082825260208201905092915050565b60006133b782613390565b6133c1818561339b565b93506133d1818560208601611dad565b6133da81611de0565b840191505092915050565b60006080820190506133fa6000830187611ee1565b6134076020830186611ee1565b6134146040830185611ff7565b818103606083015261342681846133ac565b905095945050505050565b60008151905061344081611d02565b92915050565b60006020828403121561345c5761345b611ccc565b5b600061346a84828501613431565b91505092915050565b7f4552433732313a206d696e7420746f20746865207a65726f2061646472657373600082015250565b60006134a9602083611d9c565b91506134b482613473565b602082019050919050565b600060208201905081810360008301526134d88161349c565b9050919050565b7f4552433732313a20746f6b656e20616c7265616479206d696e74656400000000600082015250565b6000613515601c83611d9c565b9150613520826134df565b602082019050919050565b6000602082019050818103600083015261354481613508565b905091905056fe4142434445464748494a4b4c4d4e4f505152535455565758595a6162636465666768696a6b6c6d6e6f707172737475767778797a303132333435363738392b2fa264697066735822122047d4e117b025a99a594f696407e8f198ea1f15b88015be139381cf4a0e6f2d8164736f6c634300080a0033",
  "linkReferences": {},
  "deployedLinkReferences": {}
}